:020000040000FA
:020000002B28AB
:040002000034003492
:080008000900211C0A28B43094
:10001000A2062110220CA10CA20C080083120530AC
:1000200081000108031D1128A30B0F28A408031940
:100030000800A40B0F280800831285011430A300C8
:10004000A4010E2008001C208312051408001C20A7
:100050008312851408008316900083168E1C3528A1
:100060000E1835280130A0063628A00103308E0076
:100070009F0101308316810083128501FC308316B5
:1000800085000130A1002018472827204828232078
:100090000130A00605202108A3002208A400F430A6
:1000A000A3070318A40A0130A4070330A4050E20F7
:0200B0004328E3
:02400E00C43FAD
:00000001FF
